{
  "_format": "hh-sol-artifact-1",
  "contractName": "MedicalRecords",
  "sourceName": "contracts/MedicalRecord.sol",
  "abi": [
    {
      "anonymous": false,
      "inputs": [
        {
          "indexed": false,
          "internalType": "uint256",
          "name": "recordId",
          "type": "uint256"
        },
        {
          "indexed": false,
          "internalType": "uint256",
          "name": "timestamp",
          "type": "uint256"
        },
        {
          "indexed": false,
          "internalType": "string",
          "name": "name",
          "type": "string"
        },
        {
          "indexed": false,
          "internalType": "uint256",
          "name": "age",
          "type": "uint256"
        },
        {
          "indexed": false,
          "internalType": "string",
          "name": "gender",
          "type": "string"
        },
        {
          "indexed": false,
          "internalType": "string",
          "name": "bloodType",
          "type": "string"
        },
        {
          "indexed": false,
          "internalType": "string",
          "name": "allergies",
          "type": "string"
        },
        {
          "indexed": false,
          "internalType": "string",
          "name": "diagnosis",
          "type": "string"
        },
        {
          "indexed": false,
          "internalType": "string",
          "name": "treatment",
          "type": "string"
        }
      ],
      "name": "MedicalRecords__AddRecord",
      "type": "event"
    },
    {
      "anonymous": false,
      "inputs": [
        {
          "indexed": false,
          "internalType": "uint256",
          "name": "recordId",
          "type": "uint256"
        },
        {
          "indexed": false,
          "internalType": "uint256",
          "name": "timestamp",
          "type": "uint256"
        },
        {
          "indexed": false,
          "internalType": "string",
          "name": "name",
          "type": "string"
        },
        {
          "indexed": false,
          "internalType": "uint256",
          "name": "age",
          "type": "uint256"
        },
        {
          "indexed": false,
          "internalType": "string",
          "name": "gender",
          "type": "string"
        },
        {
          "indexed": false,
          "internalType": "string",
          "name": "bloodType",
          "type": "string"
        },
        {
          "indexed": false,
          "internalType": "string",
          "name": "allergies",
          "type": "string"
        },
        {
          "indexed": false,
          "internalType": "string",
          "name": "diagnosis",
          "type": "string"
        },
        {
          "indexed": false,
          "internalType": "string",
          "name": "treatment",
          "type": "string"
        }
      ],
      "name": "MedicalRecords__DeleteRecord",
      "type": "event"
    },
    {
      "inputs": [
        {
          "internalType": "string",
          "name": "_name",
          "type": "string"
        },
        {
          "internalType": "uint256",
          "name": "_age",
          "type": "uint256"
        },
        {
          "internalType": "string",
          "name": "_gender",
          "type": "string"
        },
        {
          "internalType": "string",
          "name": "_bloodType",
          "type": "string"
        },
        {
          "internalType": "string",
          "name": "_allergies",
          "type": "string"
        },
        {
          "internalType": "string",
          "name": "_diagnosis",
          "type": "string"
        },
        {
          "internalType": "string",
          "name": "_treatment",
          "type": "string"
        }
      ],
      "name": "addRecord",
      "outputs": [],
      "stateMutability": "nonpayable",
      "type": "function"
    },
    {
      "inputs": [
        {
          "internalType": "uint256",
          "name": "_recordId",
          "type": "uint256"
        }
      ],
      "name": "deleteRecord",
      "outputs": [],
      "stateMutability": "nonpayable",
      "type": "function"
    },
    {
      "inputs": [
        {
          "internalType": "uint256",
          "name": "_recordId",
          "type": "uint256"
        }
      ],
      "name": "getAge",
      "outputs": [
        {
          "internalType": "uint256",
          "name": "",
          "type": "uint256"
        }
      ],
      "stateMutability": "view",
      "type": "function"
    },
    {
      "inputs": [
        {
          "internalType": "uint256",
          "name": "_recordId",
          "type": "uint256"
        }
      ],
      "name": "getAllergies",
      "outputs": [
        {
          "internalType": "string",
          "name": "",
          "type": "string"
        }
      ],
      "stateMutability": "view",
      "type": "function"
    },
    {
      "inputs": [
        {
          "internalType": "uint256",
          "name": "_recordId",
          "type": "uint256"
        }
      ],
      "name": "getBloodType",
      "outputs": [
        {
          "internalType": "string",
          "name": "",
          "type": "string"
        }
      ],
      "stateMutability": "view",
      "type": "function"
    },
    {
      "inputs": [
        {
          "internalType": "uint256",
          "name": "_recordId",
          "type": "uint256"
        }
      ],
      "name": "getDeleted",
      "outputs": [
        {
          "internalType": "bool",
          "name": "",
          "type": "bool"
        }
      ],
      "stateMutability": "view",
      "type": "function"
    },
    {
      "inputs": [
        {
          "internalType": "uint256",
          "name": "_recordId",
          "type": "uint256"
        }
      ],
      "name": "getDiagnosis",
      "outputs": [
        {
          "internalType": "string",
          "name": "",
          "type": "string"
        }
      ],
      "stateMutability": "view",
      "type": "function"
    },
    {
      "inputs": [
        {
          "internalType": "uint256",
          "name": "_recordId",
          "type": "uint256"
        }
      ],
      "name": "getGender",
      "outputs": [
        {
          "internalType": "string",
          "name": "",
          "type": "string"
        }
      ],
      "stateMutability": "view",
      "type": "function"
    },
    {
      "inputs": [
        {
          "internalType": "uint256",
          "name": "_recordId",
          "type": "uint256"
        }
      ],
      "name": "getName",
      "outputs": [
        {
          "internalType": "string",
          "name": "",
          "type": "string"
        }
      ],
      "stateMutability": "view",
      "type": "function"
    },
    {
      "inputs": [],
      "name": "getRecordId",
      "outputs": [
        {
          "internalType": "uint256",
          "name": "",
          "type": "uint256"
        }
      ],
      "stateMutability": "view",
      "type": "function"
    },
    {
      "inputs": [
        {
          "internalType": "uint256",
          "name": "_recordId",
          "type": "uint256"
        }
      ],
      "name": "getTimeStamp",
      "outputs": [
        {
          "internalType": "uint256",
          "name": "",
          "type": "uint256"
        }
      ],
      "stateMutability": "view",
      "type": "function"
    },
    {
      "inputs": [
        {
          "internalType": "uint256",
          "name": "_recordId",
          "type": "uint256"
        }
      ],
      "name": "getTreatment",
      "outputs": [
        {
          "internalType": "string",
          "name": "",
          "type": "string"
        }
      ],
      "stateMutability": "view",
      "type": "function"
    },
    {
      "inputs": [
        {
          "internalType": "uint256",
          "name": "",
          "type": "uint256"
        }
      ],
      "name": "isDeleted",
      "outputs": [
        {
          "internalType": "bool",
          "name": "",
          "type": "bool"
        }
      ],
      "stateMutability": "view",
      "type": "function"
    },
    {
      "inputs": [],
      "name": "recordId",
      "outputs": [
        {
          "internalType": "uint256",
          "name": "",
          "type": "uint256"
        }
      ],
      "stateMutability": "view",
      "type": "function"
    }
  ],
  "bytecode": "0x6080604052348015600f57600080fd5b5061142b8061001f6000396000f3fe608060405234801561001057600080fd5b50600436106100ea5760003560e01c806397f6c84c1161008c578063b810793e11610066578063b810793e14610295578063e06d2eb5146102c5578063f26c5f5f146102f5578063f7dfe22b14610325576100ea565b806397f6c84c1461021757806399055dda14610247578063ab59694614610265576100ea565b80636747f391116100c85780636747f391146101575780636b8ff5741461018757806373c440db146101b757806394182c36146101e7576100ea565b8063061f9811146100ef5780630e37008a1461010b57806333c3f9a41461013b575b600080fd5b61010960048036038101906101049190610a84565b610343565b005b61012560048036038101906101209190610a84565b61044c565b6040516101329190610ac0565b60405180910390f35b61015560048036038101906101509190610c21565b61046c565b005b610171600480360381019061016c9190610a84565b6105d1565b60405161017e9190610ac0565b60405180910390f35b6101a1600480360381019061019c9190610a84565b6105f1565b6040516101ae9190610dea565b60405180910390f35b6101d160048036038101906101cc9190610a84565b610699565b6040516101de9190610dea565b60405180910390f35b61020160048036038101906101fc9190610a84565b610741565b60405161020e9190610e27565b60405180910390f35b610231600480360381019061022c9190610a84565b610761565b60405161023e9190610dea565b60405180910390f35b61024f610809565b60405161025c9190610ac0565b60405180910390f35b61027f600480360381019061027a9190610a84565b610812565b60405161028c9190610e27565b60405180910390f35b6102af60048036038101906102aa9190610a84565b61083c565b6040516102bc9190610dea565b60405180910390f35b6102df60048036038101906102da9190610a84565b6108e4565b6040516102ec9190610dea565b60405180910390f35b61030f600480360381019061030a9190610a84565b61098c565b60405161031c9190610dea565b60405180910390f35b61032d610a34565b60405161033a9190610ac0565b60405180910390f35b6002600082815260200190815260200160002060009054906101000a900460ff16156103a4576040517f08c379a000000000000000000000000000000000000000000000000000000000815260040161039b90610e8e565b60405180910390fd5b60006001600083815260200190815260200160002090507f9f6d6d42feaf505d16bad36aa62866b87460b7e950ea40c554ef8bbfa8f0e5c6816000015442836002018460030154856004018660050187600601886007018960080160405161041499989796959493929190610fa7565b60405180910390a160016002600084815260200190815260200160002060006101000a81548160ff0219169083151502179055505050565b600060016000838152602001908152602001600020600301549050919050565b60008081548092919061047e9061108d565b9190505550604051806101200160405280600054815260200142815260200188815260200187815260200186815260200185815260200184815260200183815260200182815250600160008054815260200190815260200160002060008201518160000155602082015181600101556040820151816002019081610502919061126c565b50606082015181600301556080820151816004019081610522919061126c565b5060a0820151816005019081610538919061126c565b5060c082015181600601908161054e919061126c565b5060e0820151816007019081610564919061126c565b5061010082015181600801908161057b919061126c565b509050507f3cd872dcecf0391593d478bf560910c59955e9a59702631641bd52b78cafd5db60005442898989898989896040516105c09998979695949392919061133e565b60405180910390a150505050505050565b600060016000838152602001908152602001600020600101549050919050565b606060016000838152602001908152602001600020600201805461061490610edd565b80601f016020809104026020016040519081016040528092919081815260200182805461064090610edd565b801561068d5780601f106106625761010080835404028352916020019161068d565b820191906000526020600020905b81548152906001019060200180831161067057829003601f168201915b50505050509050919050565b60606001600083815260200190815260200160002060070180546106bc90610edd565b80601f01602080910402602001604051908101604052809291908181526020018280546106e890610edd565b80156107355780601f1061070a57610100808354040283529160200191610735565b820191906000526020600020905b81548152906001019060200180831161071857829003601f168201915b50505050509050919050565b60026020528060005260406000206000915054906101000a900460ff1681565b606060016000838152602001908152602001600020600601805461078490610edd565b80601f01602080910402602001604051908101604052809291908181526020018280546107b090610edd565b80156107fd5780601f106107d2576101008083540402835291602001916107fd565b820191906000526020600020905b8154815290600101906020018083116107e057829003601f168201915b50505050509050919050565b60008054905090565b60006002600083815260200190815260200160002060009054906101000a900460ff169050919050565b606060016000838152602001908152602001600020600501805461085f90610edd565b80601f016020809104026020016040519081016040528092919081815260200182805461088b90610edd565b80156108d85780601f106108ad576101008083540402835291602001916108d8565b820191906000526020600020905b8154815290600101906020018083116108bb57829003601f168201915b50505050509050919050565b606060016000838152602001908152602001600020600401805461090790610edd565b80601f016020809104026020016040519081016040528092919081815260200182805461093390610edd565b80156109805780601f1061095557610100808354040283529160200191610980565b820191906000526020600020905b81548152906001019060200180831161096357829003601f168201915b50505050509050919050565b60606001600083815260200190815260200160002060080180546109af90610edd565b80601f01602080910402602001604051908101604052809291908181526020018280546109db90610edd565b8015610a285780601f106109fd57610100808354040283529160200191610a28565b820191906000526020600020905b815481529060010190602001808311610a0b57829003601f168201915b50505050509050919050565b60005481565b6000604051905090565b600080fd5b600080fd5b6000819050919050565b610a6181610a4e565b8114610a6c57600080fd5b50565b600081359050610a7e81610a58565b92915050565b600060208284031215610a9a57610a99610a44565b5b6000610aa884828501610a6f565b91505092915050565b610aba81610a4e565b82525050565b6000602082019050610ad56000830184610ab1565b92915050565b600080fd5b600080fd5b6000601f19601f8301169050919050565b7f4e487b7100000000000000000000000000000000000000000000000000000000600052604160045260246000fd5b610b2e82610ae5565b810181811067ffffffffffffffff82111715610b4d57610b4c610af6565b5b80604052505050565b6000610b60610a3a565b9050610b6c8282610b25565b919050565b600067ffffffffffffffff821115610b8c57610b8b610af6565b5b610b9582610ae5565b9050602081019050919050565b82818337600083830152505050565b6000610bc4610bbf84610b71565b610b56565b905082815260208101848484011115610be057610bdf610ae0565b5b610beb848285610ba2565b509392505050565b600082601f830112610c0857610c07610adb565b5b8135610c18848260208601610bb1565b91505092915050565b600080600080600080600060e0888a031215610c4057610c3f610a44565b5b600088013567ffffffffffffffff811115610c5e57610c5d610a49565b5b610c6a8a828b01610bf3565b9750506020610c7b8a828b01610a6f565b965050604088013567ffffffffffffffff811115610c9c57610c9b610a49565b5b610ca88a828b01610bf3565b955050606088013567ffffffffffffffff811115610cc957610cc8610a49565b5b610cd58a828b01610bf3565b945050608088013567ffffffffffffffff811115610cf657610cf5610a49565b5b610d028a828b01610bf3565b93505060a088013567ffffffffffffffff811115610d2357610d22610a49565b5b610d2f8a828b01610bf3565b92505060c088013567ffffffffffffffff811115610d5057610d4f610a49565b5b610d5c8a828b01610bf3565b91505092959891949750929550565b600081519050919050565b600082825260208201905092915050565b60005b83811015610da5578082015181840152602081019050610d8a565b60008484015250505050565b6000610dbc82610d6b565b610dc68185610d76565b9350610dd6818560208601610d87565b610ddf81610ae5565b840191505092915050565b60006020820190508181036000830152610e048184610db1565b905092915050565b60008115159050919050565b610e2181610e0c565b82525050565b6000602082019050610e3c6000830184610e18565b92915050565b7f546865207265636f726420697320616c72656164792064656c65746564000000600082015250565b6000610e78601d83610d76565b9150610e8382610e42565b602082019050919050565b60006020820190508181036000830152610ea781610e6b565b9050919050565b7f4e487b7100000000000000000000000000000000000000000000000000000000600052602260045260246000fd5b60006002820490506001821680610ef557607f821691505b602082108103610f0857610f07610eae565b5b50919050565b60008190508160005260206000209050919050565b60008154610f3081610edd565b610f3a8186610d76565b94506001821660008114610f555760018114610f6b57610f9e565b60ff198316865281151560200286019350610f9e565b610f7485610f0e565b60005b83811015610f9657815481890152600182019150602081019050610f77565b808801955050505b50505092915050565b600061012082019050610fbd600083018c610ab1565b610fca602083018b610ab1565b8181036040830152610fdc818a610f23565b9050610feb6060830189610ab1565b8181036080830152610ffd8188610f23565b905081810360a08301526110118187610f23565b905081810360c08301526110258186610f23565b905081810360e08301526110398185610f23565b905081810361010083015261104e8184610f23565b90509a9950505050505050505050565b7f4e487b7100000000000000000000000000000000000000000000000000000000600052601160045260246000fd5b600061109882610a4e565b91507fffffffffffffffffffffffffffffffffffffffffffffffffffffffffffffffff82036110ca576110c961105e565b5b600182019050919050565b60006020601f8301049050919050565b600082821b905092915050565b6000600883026111227fffffffffffffffffffffffffffffffffffffffffffffffffffffffffffffffff826110e5565b61112c86836110e5565b95508019841693508086168417925050509392505050565b6000819050919050565b600061116961116461115f84610a4e565b611144565b610a4e565b9050919050565b6000819050919050565b6111838361114e565b61119761118f82611170565b8484546110f2565b825550505050565b600090565b6111ac61119f565b6111b781848461117a565b505050565b5b818110156111db576111d06000826111a4565b6001810190506111bd565b5050565b601f821115611220576111f181610f0e565b6111fa846110d5565b81016020851015611209578190505b61121d611215856110d5565b8301826111bc565b50505b505050565b600082821c905092915050565b600061124360001984600802611225565b1980831691505092915050565b600061125c8383611232565b9150826002028217905092915050565b61127582610d6b565b67ffffffffffffffff81111561128e5761128d610af6565b5b6112988254610edd565b6112a38282856111df565b600060209050601f8311600181146112d657600084156112c4578287015190505b6112ce8582611250565b865550611336565b601f1984166112e486610f0e565b60005b8281101561130c578489015182556001820191506020850194506020810190506112e7565b868310156113295784890151611325601f891682611232565b8355505b6001600288020188555050505b505050505050565b600061012082019050611354600083018c610ab1565b611361602083018b610ab1565b8181036040830152611373818a610db1565b90506113826060830189610ab1565b81810360808301526113948188610db1565b905081810360a08301526113a88187610db1565b905081810360c08301526113bc8186610db1565b905081810360e08301526113d08185610db1565b90508181036101008301526113e58184610db1565b90509a995050505050505050505056fea2646970667358221220808facc79ac8fde060701412e9b2f830e9310ff7aecef62ee328c7c303178da264736f6c634300081c0033",
  "linkReferences": {},
  "deployedLinkReferences": {}
}